:100000000C942A000C9447000C9447000C94470071
:100010000C9447000C9447000C9447000C94470044
:100020000C9447000C94E1050C9447000C94470095
:100030000C9447000C9447000C9447000C94470024
:100040000C9447000C9447000C9447000C94470014
:100050000C94470011241FBECFE5D4E0DEBFCDBF16
:1000600010E0A0E6B0E0EEECFDE002C005900D92DD
:10007000A036B107D9F710E0A0E6B0E001C01D92AC
:10008000A23AB107E1F70E940B060C94E5060C9426
:100090000000CF93DF93CDB7DEB782E390E022E399
:1000A00030E0F90120812064FC012083DF91CF91B1
:1000B0000895CF93DF93CDB7DEB782E390E022E3DC
:1000C00030E0F90120812F7BFC012083DF91CF916B
:1000D0000895CF93DF93CDB7DEB788E390E028E3B0
:1000E00030E0F90120812260FC01208388E390E068
:1000F00028E330E0F90120812D7FFC012083DF918E
:10010000CF910895CF93DF93CDB7DEB788E390E02A
:1001100028E330E0F90120812460FC01208388E39A
:1001200090E028E330E0F90120812B7FFC0120835F
:10013000DF91CF910895CF93DF93CDB7DEB789E3F9
:1001400090E0FC018081813051F08BE390E029E365
:1001500030E0F90120812695FC01208305C08BE366
:1001600090E020E8FC012083DF91CF910895CF93A8
:10017000DF9300D00F92CDB7DEB787E090E09A838F
:10018000898344C01B823AC08091A0009091A10055
:100190009C01220F331F220F331F220F331F89812F
:1001A0009A81820F931F805A9F4FFC018081882F74
:1001B00090E02B81222F30E0022E02C0959587958A
:1001C0000A94E2F781709070882351F088E390E000
:1001D00028E330E0F90120812160FC01208309C07F
:1001E00088E390E028E330E0F90120812E7FFC01D4
:1001F00020830E9469008B818F5F8B838B81883085
:1002000018F289819A8101979A83898389819A81D9
:1002100099230CF0B7CF0E9482000E949B0080912E
:10022000A0009091A1008730910551F08091A0002D
:100230009091A10001969093A1008093A00004C02A
:100240001092A1001092A0000F900F900F90DF91DC
:10025000CF910895CF93DF93CDB7DEB769970FB6EF
:10026000F894DEBF0FBECDBF888F698F888D88233D
:1002700011F087E001C080E08F871A82198220C0C8
:100280008F85882F90E09C01220F331F220F331F90
:10029000220F331F89819A81820F931F805A9F4FAB
:1002A000FC0140819E01205F3F4F89819A81820F2E
:1002B000931FFC01408389819A8101969A838983E7
:1002C00089819A8188309105DCF2888D882309F430
:1002D00040C087E090E09C838B8335C01E821D82E6
:1002E00028C08B819C8101979C01220F331F220F14
:1002F000331F220F331F8D819E81820F931F805ADF
:100300009F4FFC0140818B819C819C01220F331FF8
:10031000220F331F220F331F8D819E81820F931F67
:10032000805A9F4FFC0140838D819E8101969E8360
:100330008D838D819E81883091059CF28B819C817B
:1003400001979C838B838B819C811816190634F24C
:100350003DC018861F8235C01A86198628C08F8135
:10036000988501969C01220F331F220F331F220F05
:10037000331F89859A85820F931F805A9F4FFC01F6
:1003800040818F8198859C01220F331F220F331FDC
:10039000220F331F89859A85820F931F805A9F4FA2
:1003A000FC01408389859A8501969A87898789858A
:1003B0009A85883091059CF28F819885019698875F
:1003C0008F838F8198858730910534F2898D8823BA
:1003D00079F11C861B8626C08F85882F90E027E048
:1003E00030E0A901481B590BCA01AE01405F5F4FC5
:1003F0002B853C85240F351FF90140819C01220F7C
:10040000331F220F331F220F331F8B859C85820FD2
:10041000931F805A9F4FFC0140838B859C850196DA
:100420009C878B878B859C8588309105ACF225C095
:100430001E861D861DC08F85882F90E027E030E046
:10044000A901481B590BCA019C01220F331F220F1F
:10045000331F220F331F8D859E85820F931F805A75
:100460009F4FFC0110828D859E8501969E878D870A
:100470008D859E8588309105F4F269960FB6F894C3
:10048000DEBF0FBECDBFDF91CF910895CF93DF9335
:10049000CDB7DEB769970FB6F894DEBF0FBECDBFFC
:1004A000888F698F888D882311F087E001C080E0F4
:1004B0008F871A8219821FC08F85882F90E029812B
:1004C0003A81220F331F220F331F220F331F820F57
:1004D000931F805A9F4FFC0140819E01205F3F4F38
:1004E00089819A81820F931FFC01408389819A81BF
:1004F00001969A83898389819A8188309105E4F2F3
:10050000888D882309F43FC01C821B8236C087E097
:1005100090E09E838D8327C08D819E8101972B81E2
:100520003C81220F331F220F331F220F331F820FF4
:10053000931F805A9F4FFC0140818B819C819C01BD
:10054000220F331F220F331F220F331F8D819E81F5
:10055000820F931F805A9F4FFC0140838D819E81A3
:1005600001979E838D838D819E8118161906A4F2B2
:100570008B819C8101969C838B838B819C818830AD
:1005800091052CF23CC018861F8234C01A86198649
:1005900027C089859A8501962F813885220F331FC0
:1005A000220F331F220F331F820F931F805A9F4F3A
:1005B000FC0140818F8198859C01220F331F220FFF
:1005C000331F220F331F89859A85820F931F805A0C
:1005D0009F4FFC01408389859A8501969A87898778
:1005E00089859A8587309105A4F28F819885019637
:1005F00098878F838F819885883091053CF2898D0B
:10060000882371F11C861B8625C08F85882F90E07A
:1006100027E030E0A901481B590BCA01AE01405F39
:100620005F4F2B853C85240F351FF90140812B85B9
:100630003C85220F331F220F331F220F331F820FDF
:10064000931F805A9F4FFC0140838B859C850196A8
:100650009C878B878B859C8588309105B4F224C05C
:100660001E861D861CC08F85882F90E027E030E015
:10067000A901481B590BCA012D853E85220F331F46
:10068000220F331F220F331F820F931F805A9F4F59
:10069000FC0110828D859E8501969E878D878D85B4
:1006A0009E8588309105FCF269960FB6F894DEBFFE
:1006B0000FBECDBFDF91CF910895CF93DF93CDB71C
:1006C000DEB767970FB6F894DEBF0FBECDBF8E8B37
:1006D0006F8B8E89882311F081E001C080E88D87BF
:1006E0001A82198264C01C821B8256C089819A8139
:1006F0009C01220F331F220F331F220F331F8B81C8
:100700009C81820F931F805A9F4FFC0190818D85A1
:1007100089238823F1F09E01225F3F4F89819A81CE
:10072000820F931FFC018081282F81E090E00B80D5
:1007300002C0880F991F0A94E2F7822B482F9E016E
:10074000225F3F4F89819A81820F931FFC01408372
:100750001EC09E01225F3F4F89819A81820F931FA5
:10076000FC018081282F81E090E00B8002C0880F7F
:10077000991F0A94E2F780958223482F9E01225FF9
:100780003F4F89819A81820F931FFC0140838B81A7
:100790009C8101969C838B838B819C818830910501
:1007A0000CF4A4CF89819A8101969A8389838981E7
:1007B0009A81883091050CF496CF1E821D825FC00D
:1007C00018861F8251C08E89882329F18D819E81D0
:1007D0009C01220F331F220F331F220F331F8F81E3
:1007E0009885820F931F805A9F4FFC018081482F6C
:1007F00046958D819E819C01220F331F220F331F4E
:10080000220F331F8F819885820F931F805A9F4F2D
:10081000FC01408324C08D819E819C01220F331FE7
:10082000220F331F220F331F8F819885820F931F52
:10083000805A9F4FFC018081482F440F8D819E81FB
:100840009C01220F331F220F331F220F331F8F8172
:100850009885820F931F805A9F4FFC0140838F81A0
:100860009885019698878F838F8198858830910528
:100870000CF4A9CF8D819E8101969E838D838D81FD
:100880009E81883091050CF49BCF1A8619867EC014
:100890001C861B8670C09E01225F3F4F89859A850A
:1008A000820F931FFC018081882F90E00B8402C08F
:1008B000959587950A94E2F781709070882359F195
:1008C00089859A859C01220F331F220F331F220F27
:1008D000331F8B859C85820F931F805A9F4FFC018D
:1008E0008081982F21E88D85F22FF81B8F2F892B7F
:1008F000482F89859A859C01220F331F220F331FB1
:10090000220F331F8B859C85820F931F805A9F4F28
:10091000FC0140832BC089859A859C01220F331FDF
:10092000220F331F220F331F8B859C85820F931F4D
:10093000805A9F4FFC018081982F21E88D85F22FEE
:10094000F81B8F2F80958923482F89859A859C01D4
:10095000220F331F220F331F220F331F8B859C85DD
:10096000820F931F805A9F4FFC0140838B859C858B
:1009700001969C878B878B859C85883091050CF42C
:100980008ACF89859A8501969A87898789859A85EC
:10099000883091050CF47CCF67960FB6F894DEBFD3
:1009A0000FBECDBFDF91CF910895CF93DF93CDB729
:1009B000DEB78AE290E028E1FC01208380E490E049
:1009C00026E8FC01208380E490E0FC01108289E2AB
:1009D00090E023E3FC012083DF91CF910895CF9332
:1009E000DF930F92CDB7DEB7898300008BE290E0F2
:1009F000FC018081882F90E0807290700097B1F3A5
:100A00008CE290E02981FC0120830F90DF91CF914F
:100A10000895CF93DF93CDB7DEB700008BE290E06F
:100A2000FC0180818823D4F78CE290E0FC01808176
:100A3000DF91CF910895CF93DF93CDB7DEB7619764
:100A40000FB6F894DEBF0FBECDBF6E877F87888B51
:100A5000998B1B8219821A822DC08E859F85A88949
:100A6000B9892AE030E040E050E0BC01CD010E94AD
:100A7000C306DC01CB018B838981882F90E09E0126
:100A80002C5F3F4F820F931F2B81FC0120838981B4
:100A90008F5F89838E859F85A889B9892AE030E098
:100AA00040E050E0BC01CD010E94C3062E873F8785
:100AB000488B598B8E859F85A889B9890097A10598
:100AC000B10559F6898181508A8310C08A81882FA7
:100AD00090E09E012C5F3F4F820F931FFC018081AD
:100AE000805D0E94EF048A8181508A838A818F3FD2
:100AF00069F761960FB6F894DEBF0FBECDBFDF91E8
:100B0000CF910895CF93DF9300D00F92CDB7DEB78A
:100B10009B838A83198219820EC08981882F90E075
:100B20002A813B81820F931FFC0180810E94EF0488
:100B300089818F5F89838981882F90E02A813B8119
:100B4000820F931FFC018081882339F70F900F904B
:100B50000F90DF91CF9108951F93CF93DF93CDB77F
:100B6000DEB728970FB6F894DEBF0FBECDBF9887CB
:100B70008F8311C08F8198859D838C838F81988509
:100B8000019698878F838C819D81FC0114911E832F
:100B90008E810E94EF048F8198859A838983898151
:100BA0009A81FC0114911B838B81882319F7289665
:100BB0000FB6F894DEBF0FBECDBFDF91CF911F916E
:100BC00008951F920F920FB60F9211242F933F9307
:100BD0004F935F936F937F938F939F93AF93BF9345
:100BE000EF93FF93CF93DF93CDB7DEB70E94B700AB
:100BF000DF91CF91FF91EF91BF91AF919F918F9135
:100C00007F916F915F914F913F912F910F900FBE08
:100C10000F901F901895CF93DF93CDB7DEB729972C
:100C20000FB6F894DEBF0FBECDBF81E390E021E3A5
:100C300030E0F90120812064FC0120838AE390E008
:100C40002FEFFC0120838BE390E021E0FC01208367
:100C500087E390E027E330E0F90120812760FC0181
:100C6000208388E390E028E330E0F9012081287FA9
:100C7000FC01208383E590E023E0FC01208389E5EB
:100C800090E029E530E0F90120812160FC0120831A
:100C900078940E94D5040E94090589878985882F48
:100CA00090E08230910591F08330910509F43EC0C7
:100CB0008130910509F066C088E190E028E00FB628
:100CC000F894A89581BD0FBE21BD5CC01A8219821F
:100CD00027C01C821B821AC00E940905898789814E
:100CE0009A819C01220F331F220F331F220F331FC3
:100CF0008B819C81820F931F805A9F4F2985FC0115
:100D000020838B819C8101969C838B838B819C812A
:100D1000883091050CF389819A8101969A838983A1
:100D200089819A8188309105A4F22CC01E821D828F
:100D300023C018861F8216C08D819E819C01220FC0
:100D4000331F220F331F220F331F8F819885820F8D
:100D5000931F805A9F4FFC0110828F8198850196C6
:100D600098878F838F819885883091052CF38D81AA
:100D70009E8101969E838D838D819E818830910511
:100D8000C4F2000088CFA1E21A2EAA1BBB1BFD01F2
:100D90000DC0AA1FBB1FEE1FFF1FA217B307E4075A
:100DA000F50720F0A21BB30BE40BF50B661F771FB2
:100DB000881F991F1A9469F7609570958095909592
:0E0DC0009B01AC01BD01CF010895F894FFCF57
:00000001FF
